:090DDA00C2A5C2A4D2A5D2A42234
:100C92007E07C2A5EFA806088002C313D8FC1392F0
:0C0CA200A4D2A51EC3EE6480948050E62E
:010CAE002223
:100C4F00E4FF7E07C2A5D2A530A40D7401A8060843
:100C5F008002C333D8FC42071EC3EE6480948050D9
:010C6F00E3A1
:010C70002261
:030DC300120C927D
:0A0DC600C2A5D2A4D2A520A4FD22EC
:070DF500C2A5D2A4D2A52281
:100C05008F3D8D3E8B3F120DE3AF3D120DC3AF3EC1
:100C1500120DC3AF3F120C92120DC6120DDA7F0AE8
:050C25007E00020D003D
:040AE6008F458D4665
:100AEA00120DE3AF45120C92120DC6AF46120C92CC
:100AFA00120DC6120DE3E5454401FF120C92120DC8
:100B0A00C6120C4F8F47120DF5120DDA7F0A7E00BE
:050B1A00120D00AF47C1
:010B1F0022B3
:090DE300C2A5D2A4D2A5C2A4222B
:100977002050415353574F5244204D415443480050
:100987002020444F4F52204F50454E494E47005369
:10099700455420594F55522050415353574F5244B5
:1009A700005052455353203D204B45590057524F55
:1009B7004E47205041535300545259204147414913
:1009C7004E20003030300000000000000000000022
:0709D7000000000000000019
:1005B70078227C007D007BFF7A0979CA7E007F055F
:1005C7001200D6E4F527F528F529F52A782B7C00C3
:1005D700FD7BFF7A0979CFFE7F051200D678307C44
:1005E700007D007BFF7A0979D47E007F051200D653
:1005F70078357C007D007BFF7A0979D97E007F05FD
:100607001200D6C2B7120CAF120CCA120CE5120AAE
:100617002B120DD01208F1120B8A782B7C007D006B
:1006270012037C1207BC8B3A8A3B893CA801AC02B7
:10063700AD037B007A00792B1202938F2AE52A708B
:10064700287F01120D527BFF7A097977120C2A7FD6
:10065700C0120D527BFF7A097987120C2A120D8579
:100667007FD07E07120D0080ABA83CAC3BAD3A7B38
:10067700007A0079221202938F2AEF70397F0112D4
:100687000D527F80120D527BFF7A097996120C2A40
:100697007FC0120D527BFF7A0979A8120C2A7F902E
:1006A7007E01120D00120D6440FB1206FD8F27C25A
:1006B700A7D2A702061B7F01120D527F80120D528F
:1006C7007BFF7A0979B4120C2A7FC0120D527BFF87
:1006D7007A0979BF120C2A0529E529700205282411
:1006E70030FF120D40D2B7120D95C2B7AF29AE2811
:0606F700120C7102061B4B
:100D40008F80D2A0C2A1D2A27F027E00120D00C26B
:020D5000A222DD
:100D52008F80C2A0C2A1D2A27F027E00120D00C269
:020D6200A222CB
:100D19007F02120D527F38120D527F0E120D527F33
:040D290001020D5264
:100C2A008B458A468947AB45AA46A9471200FC600C
:100C3A00130547E5477002054614F91200FCFF1236
:050C4A000D4080E222D4
:100D0000D3EF9400EE9400400F7DFADDFE7DF7DD19
:080D1000FEEF1F70EB1E80E8EE
:010D180022B8
:100D75003738392F3435362A3132332D40303D2B33
:090DEC00C293C292C291C290228E
:100D640030940C309509309606309703D38001C334
:010D7400225C
:1006FD007F0A7E00120D00C290D293D292D2913019
:10070D009409309506309603209705E4F545804908
:10071D00C291D293D292D2903094093095063096F0
:10072D00032097057545018030C292D293D291D2A4
:10073D009030940930950630960320970575450243
:10074D008017C293D292D291D290309409309506EF
:10075D00309603209703754503209405E4F54680F4
:10076D0013209505754601800B2096057546028070
:10077D00037546033094FD3095FA3096F73097F4B3
:10078D00AF45EF3395E0FEEF7802C333CE33CED8CD
:10079D00F92475F582740D3EF583AF46EF3395E080
:0E07AD00FEE5822FF582E5833EF583E493FF9F
:0107BB00221B
:03000300020AA945
:100AA900C0E0C0F0C083C082C0D075D000C000C013
:100AB90001C002C003C004C005C006C007B2A3122A
:100AC9000399D007D006D005D004D003D002D001B5
:0D0AD900D000D0D0D082D083D0F0D0E03259
:1009DE00454E544552204F4C4420504153530050E5
:1009EE00415353204D4154434800534554205552D2
:1009FE00204E455720504153530050415353204EE3
:100A0E004F54204D415443480054525920414741C0
:0D0A1E00494E000000000000000000000034
:10039900E4F50A780D7C00FD7BFF7A0A7921FE7F5E
:1003A900051200D678157C007D007BFF7A0A792634
:1003B9007E007F051200D6120D197F01120D527FA2
:1003C90080120D527BFF7A0979DE120C2AE4F50BB3
:1003D900120DEC120D6440FB1206FD8F09740D25F8
:1003E9000BF8A609E50B24C0FF120D52AF09120D37
:1003F900407F647E00120D00E50B24C0FF120D52F0
:100409007F2A120D40050BC3E50B6480948340C01D
:10041900740D250BF8E4F61208F18F0AE50AB431D8
:1004290005120A6B8012E50AB43205120B20800806
:10043900E50AB43309120B558B128A138914780D06
:100449007C007D00AB12AA13A9141202938F0C7FB2
:1004590001120D527F80120D52E50C600302058BCB
:100469007F01120D527F80120D527BFF7A0979EDBF
:10047900120C2A7F907E01120D007F01120D527F0E
:1004890080120D527BFF7A0979F8120C2A7FC0126B
:100499000D52120DEC7F907E01120D00E50A24CE5B
:1004A9006053147003020543240260030205B61267
:1004B9000D6440FB1206FD8F08120D40AB087D0349
:1004C9007FA0120C05120DEC120D6440FB1206FD03
:1004D9008F08120D40AB087D047FA0120C05120D88
:1004E900EC120D6440FB1206FD8F08120D40AB089B
:1004F9007D05020586120D6440FB1206FD8F081268
:100509000D40AB087D087FA0120C05120DEC120DF1
:100519006440FB1206FD8F08120D40AB087D097F70
:10052900A0120C05120DEC120D6440FB1206FD8F92
:1005390008120D40AB087D0A8043120D6440FB127E
:1005490006FD8F08120D40AB087D0D7FA0120C052A
:10055900120DEC120D6440FB1206FD8F08120D40BE
:10056900AB087D0E7FA0120C05120DEC120D644034
:10057900FB1206FD8F08120D40AB087D0F7FA0020C
:100589000C057F01120D527F80120D527BFF7A0AF2
:100599007908120C2A7FC0120D527BFF7A0A79174B
:0D05A900120C2A7F907E01120D000203C388
:0105B6002222
:0F0DA5000000000000000000000000000000003F
:100A6B0078407C007D007BFF7A0D79A57E007F05A9
:100A7B001200D67D037FA0120AE68F407D047FA073
:100A8B00120AE68F417D057FA0120AE68F427B009A
:0D0A9B007A007940120C2A7B007A00794025
:010AA800222B
:100B200078407C007D007BFF7A0D79AA7E007F05EE
:100B30001200D67D087FA0120AE68F407D097FA0B3
:100B4000120AE68F417D0A7FA0120AE68F427B00DF
:040B50007A0079406E
:010B5400227E
:100B550078407C007D007BFF7A0D79AF7E007F05B4
:100B65001200D67D0D7FA0120AE68F407D0E7FA074
:100B7500120AE68F417D0F7FA0120AE68F427B00A5
:040B85007A00794039
:010B89002249
:100CAF007B307D037FA0120C057B307D047FA0126B
:0B0CBF000C057B317D057FA0020C05B9
:100CCA007B307D087FA0120C057B317D097FA01245
:0B0CDA000C057B307D0A7FA0020C059A
:100CE5007B317D0D7FA0120C057B307D0E7FA01220
:0B0CF5000C057B307D0F7FA0020C057A
:100BB500202053454C4543542049442046524F4D2F
:100BC500002020202020203120322033002020202A
:0A0BD50020454E54455220494400CB
:040DFC0002480000A9
:1008F100E4F53D7F01120D527F80120D527BFF7A8C
:100901000B79B5120C2A7FC0120D527BFF7A0B793D
:10091100C6120C2A7F847E03120D007F01120D5234
:100921007F80120D527BFF7A0B79D2120C2A7F64E1
:100931007E00120D007FC0120D527F0F120D52E486
:10094100F548F5497F14120D520549E54970020534
:1009510048C39407E5486480948040E8120DEC1286
:100961000D6440FB1206FD8F3D120D407FE87E03B2
:05097100120D00AF3D76
:01097600225E
:100B8A00EF24CE600C14600E24027018120A6B80D7
:100B9A0008120B208003120B558B3D8A3E893F7F3A
:0A0BAA0001120D52AB3DAA3EA93F17
:010BB400221E
:100BDF0057454C434F4D4500454C454354524F4E9E
:100BEF00494320444F4F520020204C4F434B20533A
:060BFF00595354454D005E
:100A2B00120D197F01120D527F84120D527BFF7A2A
:100A3B000B79DF120C2A7FE87E03120D007F011267
:100A4B000D527BFF7A0B79E7120C2A7FC0120D52E5
:100A5B007BFF7A0B79F7120C2A7FE87E03020D00DD
:0A0DD00075A881D2A8D2AFD2882204
:100D8500D2B5C2B67FD07E07120D00C2B5C2B6225B
:100D9500C2B5D2B67FE87E03120D00C2B5C2B62237
:100D2D00202020454E544552205041535300000081
:030D3D00000000B3
:1007BC00783D7C007D007BFF7A0D793B7E007F05C8
:1007CC001200D6754307E4F544120D197F01120D82
:1007DC00527F80120D527BFF7A0D792D120C2A7FDD
:1007EC00647E00120D007FC0120D527F0F120D524D
:1007FC00E4F5427F14120D520542E542C3940740C2
:10080C00F2E4F542120DEC120D6440FB1206FD8F62
:10081C0044743D2542F8A644E54324C0FF120D5212
:10082C00AF44120D407F647E00120D00E54324C0DE
:10083C00FF120D527F2A120D4005430542E542C3BB
:10084C00940340C0743D2542F8E4F67F2C7E0112DF
:08085C000D007B007A00793DDC
:010864002271
:0F0DB400555220535954454D20424C4F434B004C
:100C7100EF64034E701A7F01120D527F80120D52E4
:100C81007BFF7A0D79B4120C2A7FD07E07120D00FA
:010C91002240
:030000000208658E
:0C086500787FE4F6D8FD7581490208ACEC
:100871000205B7E493A3F8E493A34003F68001F2E1
:1008810008DFF48029E493A3F85407240CC8C33388
:10089100C4540F4420C8834004F456800146F6DF57
:1008A100E4800B0102040810204080900DFCE47EDE
:1008B100019360BCA3FF543F30E509541FFEE4934C
:1008C100A360010ECF54C025E060A840B8E493A313
:1008D100FAE493A3F8E493A3C8C582C8CAC583CA3E
:1008E100F0A3C8C582C8CAC583CADFE9DEE780BEF6
:010E000000F1
:10000600E709F608DFFA8046E709F208DFFA803EDC
:1000160088828C83E709F0A3DFFA8032E309F608C9
:10002600DFFA8078E309F208DFFA807088828C8331
:10003600E309F0A3DFFA806489828A83E0A3F608E5
:10004600DFFA805889828A83E0A3F208DFFA804CBF
:1000560080D280FA80C680D4806980F28033801096
:1000660080A680EA809A80A880DA80E280CA8033FF
:1000760089828A83ECFAE493A3C8C582C8CCC58377
:10008600CCF0A3C8C582C8CCC583CCDFE9DEE78047
:100096000D89828A83E493A3F608DFF9ECFAA9F0C6
:1000A600EDFB2289828A83ECFAE0A3C8C582C8CC1C
:1000B600C583CCF0A3C8C582C8CCC583CCDFEADE35
:1000C600E880DB89828A83E493A3F208DFF980CC97
:1000D60088F0EF60010E4E60C388F0ED2402B40490
:1000E6000050B9F582EB2402B4040050AF23234537
:0600F60082239000567306
:1000FC00BB010689828A83E0225002E722BBFE0202
:09010C00E32289828A83E4932234
:10011500E3F5F009E208B5F06D606B80F3E3F5F007
:1001250009E608B5F060605E80F387F009E608B57A
:10013500F054605280F487F009E208B5F048604653
:1001450080F488828C8387F009E0A3B5F0386036A7
:1001550080F488828C8387F009E493A3B5F0276047
:100165002580F388828C83E3F5F009E0A3B5F016CA
:10017500601480F388828C83E3F5F009E493A3B5DA
:10018500F004600280F2020240808580E7808E8064
:10019500D2803C8015806C807E809B80B5808B8072
:1001A500A1804F8070803A02024C89828A83ECFAE2
:1001B500E493F5F0A3C8C582C8CCC583CCE493A36A
:1001C500C8C582C8CCC583CCB5F070606E80E189A6
:1001D500828A83E493F5F0A3E208B5F05E605C8063
:1001E500F289828A83E0F5F0A3E608B5F04D604B0D
:1001F50080F389828A83E0F5F0A3E208B5F03C60DC
:100205003A80F389828A83E493F5F0A3E608B5F092
:100215002A602880F2805389828A83ECFAE493F578
:10022500F0A3C8C582C8CCC583CCE0A3C8C582C825
:10023500CCC583CCB5F004600280E27FFFB5F00247
:100245000F2240027F012289828A83ECFAE0F5F0D1
:10025500A3C8C582C8CCC583CCE0A3C8C582C8CC19
:10026500C583CCB5F0D560D380E389828A83ECFA67
:10027500E0F5F0A3C8C582C8CCC583CCE493A3C878
:10028500C582C8CCC583CCB5F0B160AF80E288F03B
:10029500ED2402B4040050A3F582EB2402B404005B
:0B02A5005099232345822390018E73A3
:1002B000E709F60870FA8046E709F20870FA803E0E
:1002C00088828C83E709F0A370FA807EE309F60840
:1002D00070FA8076E309F20870FA806E88828C8367
:1002E000E309F0A370FA806289828A83E0A3F608AA
:1002F00070FA805689828A83E0A3F20870FA804AF5
:1003000080D280FA80C680D4806580F280318010EF
:1003100080A680EA809A80A880DA80E280CA803154
:1003200089828A83ECFAE493A3C8C582C8CCC583CA
:10033000CCF0A3C8C582C8CCC583CC70E9800D8938
:10034000828A83E493A3F60870F9ECFAA9F0EDFB36
:100350002289828A83ECFAE0A3C8C582C8CCC5830F
:10036000CCF0A3C8C582C8CCC583CC70EA80DD8937
:10037000828A83E493A3F20870F980CE88F0ED249A
:1003800002B4040050C4F582EB2402B4040050BA55
:090390002323458223900300732E
:00000001FF
